:060000000200350202D3EC
:0300130002027A6C
:0300230002028353
:10003500758000759000D291D29075A0FFC2A4750D
:10004500B0FFC2CD758926759850E5874480F58740
:10005500758C00758A00D28C758DFDD28EC298D2B2
:100065009C75CBFF75CAEF75CDFF75CCEF12008778
:10007500D2A4900450C288D2AFD2ACD2AAD2A802E0
:100085000200D2CA12008D2230CFFDC2CAC2CF22D1
:10020000790030B70B30B42A30B54430B65A80F09C
:10021000D2A0758C00758A00E58AD28CC2A4120027
:1002200087D2A4C2A4120087D2A49375A0FFF59030
:1002300080CEE58AB40A05758A098000E58A93F5BF
:1002400090C2A3120087D2A3E58A1202BA80B1E558
:100250008A6022158AE58A93F590C2A2120087D29D
:10026000A2E58A1202BA8098C28CB9009375906197
:10027000B9008D80F37590038086E58A93F59930F7
:1002800099FD32C2AF20992A30982CC299E59990F5
:10029000045093F5901200877590FFF59012008737
:1002A0007590FFF5901200877590FFF590C298D277
:1002B000AF32C299D2AF32D2AF32AA8ABA0608C2DE
:1002C000A1120087D2A1224005D2A1C2A022D2A1B0
:1002D000D2A022C2AF7901E58A93F590D28CD2AF39
:0102E00032EB
:0A045000039F250D9949411F011972
:00000001FF
